:020000040800F2
:10000000D80B0020010100086D34000831320008CF
:1000100069340008490C00081D3F0008000000007A
:100020000000000000000000000000001D35000876
:10003000FD0C000800000000DD34000875350008E4
:100040001B0100081B0100081B0100081B01000820
:100050001B0100081B0100081B0100081B01000810
:100060001B0100081B0100081B0100081B01000800
:100070004D0C00085D0C00086D0C00087D0C00089C
:100080008D0C00089D0C00081B0100081B010008D6
:100090001B0100081B0100081B0100081B010008D0
:1000A0001B0100081B0100081B0100081B010008C0
:1000B000ED3500081B0100081B0100081B010008AA
:1000C0001B0100081B0100081B0100081B010008A0
:1000D0001B0100088D3D0008113E0008953E0008F8
:1000E0001B0100081B0100081B010008DFF80CD0F1
:1000F00000F06CFB0048004775410008D80B002059
:100100000648804706480047FEE7FEE7FEE7FEE7B1
:10011000FEE7FEE7FEE7FEE7FEE7FEE7E93500085B
:10012000ED000008D2B201E000F8012B491EFBD21D
:1001300070470022F6E710B513460A4604461946F2
:10014000FFF7F0FF204610BD421C10F8011B0029EC
:10015000FBD1801A7047000070B50F4D00B92868B8
:10016000002412E00A4602E09E4203D0521C13789B
:10017000002BF9D1DAB2224305D02BB124B10021F2
:1001800000F8011B04E00446401C0678002EE9D16B
:100190002860204670BD0000000000202DE9F04DD1
:1001A00081EA030404F0004B21F0004514464FF0AF
:1001B000000A23F0004150EA050220D054EA01026F
:1001C0001DD0C5F30A570246C5F31303C1F313004C
:1001D000C1F30A5640F4801543F48013A7EB0608D8
:1001E000101BD64608F2FD3873EB050002D308F168
:1001F000010801E092185B41B8F1000F03DA00201A
:100200000146BDE8F08D00204FF48011064684467B
:100210000EE0171B73EB050705D3121B63EB0503F9
:1002200006434CEA010C49084FEA300092185B4142
:1002300050EA0107EDD152EA030012D082EA04002D
:1002400083EA0501084305D0101BAB4106D2012209
:10025000002306E000224FF0004302E06FF00102AD
:1002600053101AEB06004CEB085110EB0A0041EB5F
:100270000B01BDE8F04D00F002B900F0004230F093
:1002800000400AD0C10D01F56071C0F3160042EACA
:100290000151C208400711437047002001467047D2
:1002A00001F0004330B421F0004150EA010206D0D1
:1002B0000A0DA2F56072C1F31301002A02DC30BC02
:1002C00000207047440F44EAC104C100E01830BC6C
:1002D00000EBC25000F09CB830B50B460146002040
:1002E0002022012409E021FA02F59D4205D303FAF8
:1002F00002F5491B04FA02F52844151EA2F1010279
:10030000F1DC30BD2DE9F05F0546002092469B46AA
:1003100088460646814640241BE02846414647461B
:10032000224600F07AFA53465A46C01A914110D339
:1003300011461846224600F061FA2D1A67EB0108B3
:100340004F4622460120002100F058FA17EB000921
:100350004E41201EA4F10104DFDC484631462A4606
:100360004346BDE8F09F00000FB40B0010B58AB003
:100370000FA900910E994FF00004234ACC60214C44
:10038000CDE9064200D004236FF00042CDE90132EE
:100390001E4A089202466B46002000F0F9FA0AB0A5
:1003A00010BC5DF814FBF0B585B007464FF0FF3088
:1003B0000091CDE901011E46002015460C4604902F
:1003C0003B466A46314604A8FFF7CEFF0499034630
:1003D000601825B109B1024600E022462A600029D2
:1003E0000ED0002B02DD0099814209D00094001B41
:1003F000CDE901043B466A46314604A8FFF7B4FF45
:1004000005B0F0BDC90B0008E70B00085F08000845
:100410000029A8BF7047401C490008BF20F0010018
:10042000704710B4B0FA80FC00FA0CF050EA0104F6
:1004300004BF10BC704749B1CCF1200421FA04F488
:1004400011FA0CF118BF012121430843A3EB0C0161
:10045000CB1D4FEA00614FEA102042BF002010BCC4
:10046000704700EBC35010440029A4BF10BC704774
:10047000401C490008BF20F0010010BC704710B5B7
:10048000141E73F1000408DA401C41F100019218B7
:100490005B411A4301D120F0010010BD2DE9F04D60
:1004A00092469B4611B1B1FA81F202E0B0FA80F2B5
:1004B0002032904600F0A2F904460F4640EA0A00B6
:1004C00041EA0B0153465A46084313D0114653EAFA
:1004D000010019D0C8F14002504600F09EF90546CF
:1004E0000E4650465946424600F088F9084305D06A
:1004F000012004E020463946BDE8F08D0020054388
:1005000046EAE0762C4337430A986305E40AA0EBF9
:1005100008000022FD0A44EA47540A3002D50020B0
:100520000146E9E7010510196941DDE908450019AF
:100530006941BDE8F04DA2E72DE9FE4F804681EA12
:100540000300C00F0C46009021F0004123F000454D
:10055000B8EB0200A94105D24046214690461C4610
:100560000B46024623F00040104347D0270DC7F347
:100570000A00C3F30A510290401A019040286BDA36
:10058000C3F3130040F4801B0098924620B100236F
:10059000D2EB030A63EB0B0B01985946C0F1400202
:1005A000504600F02BF906460D4650465946019A32
:1005B00000F043F910EB08006141002487EA115272
:1005C00084EAE7731A4340D0009A62B3019A012A81
:1005D0004FEA075215DC001B61EB02014FF00042AD
:1005E00002EA0752CDE90042001C41F58011324673
:1005F0002B46FFF753FF03B0BDE8F08F404621467E
:10060000F9E7001B61EB0201001C41F580130018A3
:100610005B412018A2F5001747EB030140EAD570B3
:10062000B6196D4111E06D084FEA360645EAC0750E
:100630004FEA0752001B61EB0201001C41F58011DB
:1006400049084FEA30000019514132462B4603B0A9
:10065000BDE8F04FFFF713BF0098012240000023D0
:10066000D0EB020263EBE073009821464FEAE0749E
:10067000B8EB000061EB0401E9E783F000435BE7BE
:1006800081F0004158E72DE9FE4F81EA030404F0B0
:10069000004421F0004100944FF0000B23F0004390
:1006A00050EA01045ED052EA03045BD0C3F30A545B
:1006B000C1F30A552C44A4F2F3340194A0FB025474
:1006C000C1F3130141F48011C3F3130343F4801306
:1006D00001FB024400FB034E840A970A44EA81545A
:1006E00047EA8357A4FB076802958D0A05FB078537
:1006F0004FEA932C04FB0C542705029D4FEA065841
:1007000047EA1637B5EB08056EEB070C870E920E1D
:1007100047EA811742EA8312A7FB0201B6EB0B01FD
:1007200064EB00042B0D43EA0C335E1844EB1C50C1
:10073000DA465146E7FB0201C5F313044FEA0B33D7
:1007400043EA14534FEA0432019C43EA0603A4F13E
:100750000C040294009CCDE900B4FFF79FFE03B0A7
:10076000BDE8F08F00200146F9E7C1F30A52C1F35A
:10077000130140F2FF3341F480119A4202DA002063
:100780000146704740F233439A42A2F2334202DC00
:10079000524200F042B800F031B8000030B5041EFB
:1007A00071F1000404DB4FF00044404264EB0101AE
:1007B000141E73F1000405DB1C464FF00043524247
:1007C00063EB0403994208BF904230BD1CB5094851
:1007D0000090094801900546009C06E0E06840F062
:1007E000010394E8070098471034AC42F6D3FFF7B2
:1007F00081FC0000004F0008204F0008202A04DB85
:10080000203A00FA02F1002070479140C2F1200323
:1008100020FA03F3194390407047202A04DB203A62
:1008200021FA02F00021704721FA02F3D040C2F110
:1008300020029140084319467047202A06DBCB1757
:10084000203A41FA02F043EAE07306E041FA02F38B
:10085000D040C2F120029140084319467047C0B20F
:100860004FF4F05100F0D0B92DE9FF4F087883B074
:100870009946FF2805D0491C2D2804D000240020CB
:1008800008E000200BE00124F9E700EB800003EB17
:100890004000491C0B78FF2BF7D104B140420023E4
:1008A0000293147819461D462D2C01D02B2C04D10F
:1008B000521C2D2C13D000240294AA461478FF2C2D
:1008C0000FD00A25A3FB057801FB05814FF0000C32
:1008D00003FB0C11521CE3194AEB0101EEE7012462
:1008E000EAE7814453EA010002D019F5C87F06DA2D
:1008F00003980021C0E9001107B0BDE8F08F002582
:10090000AE4E2F46DFF8B882184600F091F9CDE9D7
:100910000001B9F1000002DAC9F1000400E0044668
:100920000023A74A1AEB030B42EB045A12E0E0073C
:1009300007D02A46334638464146FFF7A4FE07460D
:1009400088462A46334610461946FFF79CFE054660
:100950000E466410002CEAD1DDE90001B9F1000F68
:100960005A46534606DAFFF719FC3A464346FFF764
:1009700015FC05E0FFF787FE3A464346FFF783FE86
:10098000029A0AB181F00041039AC2E90001B3E77B
:100990002DE9FF4F1F468DB0D7E901464FF0FF38D4
:1009A0002E2045464FF000090B90B9696D1C0E983A
:1009B0008847396A824688470028F6D1BAF1FF3F56
:1009C0000AD024F4D064002E11DDBAF12B0F08D028
:1009D000BAF12D0F0BD102E0404611B08DE744F47F
:1009E0008064B9696D1C0E9888478246761E6946F8
:1009F000600501D52D2000E02B208DF8000001F1CD
:100A0000010B0DF1200809E0B9696D1C0E988847AB
:100A100082460F9844F40074761E0560002E02DDB5
:100A2000BAF1300FF0D00B998A453ED144F08004E2
:100A300006E00F99681CA9F1010944F400740860EC
:100A4000B9696D1C761E0E98884782463028F0D012
:100A50002BE00B998A4505D1200603D444F080048D
:100A6000761E18E0504603F021FE08B30DF1130284
:100A7000761EAAF1300044F40074934506D20BF8B8
:100A8000010B200607D5A9F1010003E0200602D4DE
:100A900009F101008146A00502D50F99681C086084
:100AA000B9696D1C0E9888478246002ED1DC53E050
:100AB000002E51DDBAF1650F02D0BAF1450F4BD1CE
:100AC000A00549D5B9696D1C24F44074761E0E98B2
:100AD00088478246002E0CDD2B2804D0BAF12D0F5A
:100AE00007D144F48074B9696D1C0E98884782461A
:100AF000761EE00501D52D2100E02B2108F8011B11
:100B0000CDF82C8021E00DF12901761E44F400740B
:100B100088450CD2AAF1300010F0FF0088F80000E0
:100B200002D10B99884509D908F1010806E0E005D2
:100B300001D5244801E042F20F708146B9696D1C6D
:100B40000E98884782460F980560002E04DD5046B7
:100B500003F0ACFD0028D6D1F9690E988847FF2034
:100B60008BF8000088F800000020069007904B46A4
:100B70006A4608A906A8FFF777FEA00502D46FF021
:100B800001002AE714F0240F0AD0E00714D1DDE9B0
:100B900006123868031D3B600068C0E900120BE0D4
:100BA000DDE90601FFF77CFB0146E00704D1386868
:100BB000021D3A600068016028460EE700001440FC
:100BC0000000F03FF1D8FFFF426842B1016811F820
:100BD000013B23B1521EC0E90012184670470121A3
:100BE000C160881E704742685AB1C368016843B942
:100BF00083688B4205D0491E521CC0E900120020B8
:100C000070474FF0FF3070477F2801D9002208E07D
:100C1000064A02EB5002C007127800D1120902F016
:100C20000F0201209040084070470000204E00084D
:100C30000EB540F2334202920022CDE90022134663
:100C4000FFF72CFC03B000BDFFE7FEE780B540F2E4
:100C50007410C2F2000000F027F980BD80B540F2A8
:100C60003010C2F2000000F01FF980BD80B540F2E4
:100C70006400C2F2000000F017F980BD80B540F2B8
:100C80002000C2F2000000F00FF980BD80B540F2F4
:100C9000A800C2F2000000F007F980BD80B540F264
:100CA000EC00C2F2000000F0FFF880BD84B00390B9
:100CB0000291019200930398C16B026C0120904055
:100CC00048600098039909684860039840681028B4
:100CD00009D1FFE701980399096888600298039990
:100CE0000968C86008E0029803990968886001985B
:100CF00003990968C860FFE704B0704770470000B7
:100D000081B0EFF3108072B60090FFE7FEE70000BD
:100D100083B0019000208DF80300019890F8210025
:100D200002280DD0FFE7019904208863FFE70199AD
:100D3000002081F82000FFE701208DF80B0021E062
:100D400001980168086820F00E00086001980168A9
:100D5000086820F0010008600198C16B026C012056
:100D600090404860FFE70199012081F82100FFE7EA
:100D70000199002081F82000FFE79DF803008DF81D
:100D80000B00FFE79DF80B0003B0704780B588B0FB
:100D9000079000208DF81B00079890F8210002288A
:100DA00007D0FFE707990420886301208DF81B0016
:100DB00076E007980168086820F00E000860079840
:100DC0000168086820F001000860079800680821A1
:100DD000C4F20201884203D1FFE70120059047E0F9
:100DE000079800681C21C4F20201884203D1FFE782
:100DF0001020049039E0079800683021C4F2020105
:100E0000884204D1FFE74FF4807003902AE00798EE
:100E100000684421C4F20201884204D1FFE74FF484
:100E2000805002901BE0079800685821C4F202012C
:100E3000884204D1FFE74FF4803001900CE007981E
:100E400001686C22C4F202024FF08070914208BF28
:100E50004FF480100190FFE701980290FFE702989D
:100E60000390FFE703980490FFE704980590FFE7DD
:100E700005980421C4F2020108600799012081F855
:100E80002100FFE70799002081F82000FFE707987D
:100E9000406B20B1FFE70798416B8847FFE7FFE70A
:100EA0009DF81B0008B080BD80B58EB00D900D98E8
:100EB000C06B00680C900D98006800680B900C984F
:100EC0000D99096CC8404007002875D5FFE79DF8CB
:100ED0002C00400700286FD5FFE70D9800680068D8
:100EE0008006002807D4FFE70D980168086820F005
:100EF00004000860FFE70D9800680821C4F20201B1
:100F0000884203D1FFE704200A9047E00D9800686B
:100F10001C21C4F20201884203D1FFE7402009905E
:100F200039E00D9800683021C4F20201884204D1F2
:100F3000FFE74FF4806008902AE00D980068442194
:100F4000C4F20201884204D1FFE74FF480400790C9
:100F50001BE00D9800685821C4F20201884204D1B8
:100F6000FFE74FF4802006900CE00D9801686C229A
:100F7000C4F202024FF08060914208BF4FF480003B
:100F80000690FFE706980790FFE707980890FFE7AD
:100F900008980990FFE709980A90FFE70A9804214A
:100FA000C4F2020108600D98C06A20B1FFE70D98F5
:100FB000C16A8847FFE7B8E00C980D99096CC840F2
:100FC0008007002840F18080FFE79DF82C00800713
:100FD000002879D5FFE70D98006800688006002892
:100FE0000BD4FFE70D980168086820F00A0008603C
:100FF0000D99012081F82100FFE70D980068082174
:10100000C4F20201884203D1FFE70220059047E0C5
:101010000D9800681C21C4F20201884203D1FFE749
:101020002020049039E00D9800683021C4F20201BC
:10103000884204D1FFE74FF4007003902AE00D9836
:1010400000684421C4F20201884204D1FFE74FF452
:10105000005002901BE00D9800685821C4F2020174
:10106000884204D1FFE74FF4003001900CE00D9866
:1010700001686C22C4F202024FF00070914208BF76
:101080004FF400100190FFE701980290FFE70298EB
:101090000390FFE703980490FFE704980590FFE7AB
:1010A00005980421C4F202010860FFE70D990020B1
:1010B00081F82000FFE70D98806A20B1FFE70D98C6
:1010C000816A8847FFE72FE00C980D99096CC840AA
:1010D0000007002827D5FFE79DF82C00000700280F
:1010E00021D5FFE70D980168086820F00E00086020
:1010F0000D98C26B016C012000FA01F151600D994D
:1011000088630D9981F82100FFE70D99002081F88F
:101110002000FFE70D98006B20B1FFE70D98016BF1
:101120008847FFE7FFE7FFE7FFE70EB080BD00005D
:1011300083B0019000200090019820B9FFE70120C2
:101140008DF80B0047E0019908684FF6F872CBF66E
:10115000FD7210444CF6CD42CCF6CC42A0FB02020C
:101160006FF0030000EA9200086401990020C4F2C5
:101170000200C8630199022081F8210001980068EB
:1011800000680090009843F6F07188430090019940
:101190004868D1F808C0CB680A6940EA0C001843D7
:1011A00010434A6910438A691043C9690143009892
:1011B000084300900098019909680860019900208F
:1011C0008863019A012182F82110019981F8200099
:1011D0008DF80B00FFE79DF80B0003B0704700008F
:1011E00080B586B0049003910292019300208DF89F
:1011F0000300FFE7049890F82000012804D1FFE7DE
:1012000002208DF817004CE00499012081F820009D
:10121000FFE7FFE7049890F82100012832D1FFE7AB
:101220000499022081F82100049900208863049821
:101230000168086820F00100086004980399029A88
:10124000019BFFF733FD0498C06A38B1FFE70498AB
:101250000168086840F00E0008600CE0049801681E
:10126000086820F00400086004980168086840F0ED
:101270000A000860FFE704980168086840F0010070
:10128000086009E0FFE70499002081F82000FFE7EB
:1012900002208DF80300FFE79DF803008DF817008A
:1012A000FFE79DF8170006B080BD000080B584B050
:1012B000039000F0ADF9029003980190019801307D
:1012C00048B1FFE740F20C00C2F20000017801983B
:1012D00008440190FFE7FFE700F09AF90299401AED
:1012E0000199884201D2FFE7F6E704B080BD000013
:1012F00090B00F900E9100200D900990FFE70E988E
:1013000000680D99C840002800F07F81FFE70D9923
:10131000012088400C900E9800680C9908400B90B2
:101320000B980C99884240F06C81FFE70E9840685A
:101330000590002851D0FFE7059801283AD0FFE733
:10134000059802283FD0FFE7059803285FD0FFE704
:101350000598112832D0FFE70598122838D0FFE70A
:1013600005980021C1F21101884236D0FFE70598A7
:101370000021C1F2120188422FD0FFE70598002119
:10138000C1F22101884228D0FFE705980021C1F26F
:101390002201884221D0FFE705980021C1F23101E6
:1013A00088421AD0FFE705980021C1F23201884235
:1013B00013D02FE00E98C06809902CE00E98C068FA
:1013C0000430099027E00E98C0680830099022E0A8
:1013D0000E98C0680C3009901DE00E98806818B90E
:1013E000FFE70420099011E00E988068012806D1DB
:1013F000FFE7082009900C980F99086105E0082084
:1014000009900C980F994861FFE7FFE703E000207F
:10141000099000E0FFE70B98FF2803D8FFE70F983B
:10142000049003E00F9804300490FFE704980890BC
:101430000B98FF2804D8FFE70D988000039006E082
:101440000D996FF01F0000EB81000390FFE70398F8
:10145000079008980068079A0F21914088430999DE
:1014600091400843089908600E98C079C00600288A
:1014700040F1C680FFE7FFE741F21800C4F2020026
:10148000016841F001010160006800F00100069070
:101490000698FFE70D9820F003000821C4F201012F
:1014A00040580A900D9800F0030081000F2000FAC8
:1014B00001F10A9888430A900F9840F60001C4F29F
:1014C0000101884203D1FFE70020029026E00F9837
:1014D00040F60041C4F20101884203D1FFE7012038
:1014E000019018E00F9841F20001C4F20101884216
:1014F00003D1FFE7022000900AE00F9941F2004279
:10150000C4F201020420914208BF03200090FFE7CB
:1015100000980190FFE701980290FFE702980D996B
:1015200001F00301890000FA01F10A9808430A90CA
:101530000A980D9921F003010822C4F20102885093
:101540000E988079C00748B1FFE70B9A40F200413E
:10155000C4F2010108681043086008E00B9A40F2E9
:101560000041C4F20101086890430860FFE70E984B
:1015700080798007002809D5FFE70B9A40F20441E3
:10158000C4F2010108681043086008E00B9A40F2B9
:101590000441C4F20101086890430860FFE70E9817
:1015A0008079C006002809D5FFE70B9A40F2084170
:1015B000C4F2010108681043086008E00B9A40F289
:1015C0000841C4F20101086890430860FFE70E98E3
:1015D00080798006002809D5FFE70B9A40F20C417C
:1015E000C4F2010108681043086008E00B9A40F259
:1015F0000C41C4F20101086890430860FFE7FFE76F
:10160000FFE70D9801300D9079E610B070470000AB
:1016100040F2CC70C2F200000068704740F20C004B
:10162000C2F20000027840F2CC71C2F200010868F8
:10163000104408607047000080B582B042F200019B
:10164000C4F20201086840F010000860032000F0B6
:1016500097F80020019000F005F800F03BF80198A1
:1016600002B080BD80B582B0009040F20800C2F2A6
:101670000000006840F20C01C2F200010A784FF449
:101680007A71B1FBF2F1B0FBF1F000F087FD20B10F
:10169000FFE701208DF8070018E000980F280DD80B
:1016A000FFE700994FF0FF30002200F04FF800985C
:1016B00040F21001C2F20001086003E001208DF841
:1016C000070003E000208DF80700FFE79DF8070002
:1016D00002B080BD83B0FFE741F21800C4F20200FF
:1016E000016841F001010160006800F00100029012
:1016F0000298FFE7FFE741F21C00C4F20200016814
:1017000041F080510160006800F080500190019824
:10171000FFE7FFE70421C4F2010108680090009888
:1017200020F0E0600090009840F000700090009879
:101730000860FFE703B0704780B582B08DF80700FE
:101740009DF9070002F0B6FC02B080BD80B586B0FE
:101750008DF81700049103920020029002F0C2FC61
:1017600002909DF91700019002980499039A01F0E4
:101770007FFE0146019802F0BDFC06B080BD00006E
:1017800080B582B00190019802F0D6FC02B080BD15
:1017900080B584B002900191029820B9FFE7012042
:1017A0008DF80F001BE1019842F20001C4F2020122
:1017B000096801F00701884216D9FFE742F20000EC
:1017C000C4F20200016821F00701019A114301608F
:1017D000006800F007000199884204D0FFE701206B
:1017E0008DF80F00FBE0FFE70298007880070028E3
:1017F0002AD5FFE7029800784007002809D5FFE7BF
:1018000041F20401C4F20201086840F4E06008609B
:10181000FFE7029800780007002809D5FFE741F2AA
:101820000401C4F20201086840F460500860FFE758
:1018300041F20401C4F20201086820F0F000029AAB
:10184000926810430860FFE702980078C0070028FC
:1018500060D0FFE70298406801280ED1FFE741F20F
:101860000000C4F2020000688003002804D4FFE7EF
:1018700001208DF80F00B2E021E0029840680228B4
:101880000ED1FFE741F20000C4F2020000688001BF
:10189000002804D4FFE701208DF80F009FE00DE041
:1018A00041F20000C4F2020000688007002804D45E
:1018B000FFE701208DF80F0091E0FFE7FFE741F21D
:1018C0000401C4F20201086820F00300029A526881
:1018D00010430860FFF79CFE0090FFE741F2040010
:1018E000C4F20200006800F00C0002994968B0EBF5
:1018F000810F0ED0FFE7FFF78BFE0099401A41F2EF
:101900008931884204D3FFE703208DF80F0066E099
:10191000E4E7FFE7019842F20001C4F2020109681E
:1019200001F00701884216D2FFE742F20000C4F23C
:101930000200016821F00701019A1143016000686B
:1019400000F007000199884204D0FFE701208DF8DC
:101950000F0044E0FFE702980078400700280CD50C
:10196000FFE741F20401C4F20201086820F4E060DC
:10197000029AD26810430860FFE7029800780007D7
:1019800000280DD5FFE741F20401C4F20201086806
:1019900020F46050029A126940EAC2000860FFE732
:1019A00000F04CF841F20401C4F202010968C9B226
:1019B0000A0944F66061C0F60001895CC84040F243
:1019C0000801C2F20001086040F21000C2F20000FB
:1019D0000068FFF747FE00208DF80F00FFE79DF835
:1019E0000F0004B080BD000040F20800C2F2000009
:1019F0000068704780B5FFF7F7FF41F20401C4F2B9
:101A000002010968C1F3022244F67061C0F60001C8
:101A1000895CC84080BD000080B5FFF7E5FF41F25A
:101A20000401C4F202010968C1F3C22244F67061E4
:101A3000C0F60001895CC84080BD00008BB040F654
:101A40000E70C1F210000A9040F60A30C0F60C5039
:101A5000099040F20670C0F60810089040F202307B
:101A6000C0F20450079040F20120ADF81A000020A7
:101A70000590049003900290019041F20400C4F29A
:101A8000020000680590059800F00C0001460091E6
:101A9000E0B3FFE70098042804D0FFE70098082887
:101AA00006D034E041F20020C0F27A00019034E028
:101AB0000598C0F3834107A8405C02909DF816008A
:101AC000C007C0B1FFE741F20400C4F202000068A1
:101AD00000F400310DF11A0040EA51400078049002
:101AE000029841F20021C0F27A0148430499B0FB08
:101AF000F1F0039007E0029840F60011C0F23D01BA
:101B000048430390FFE70398019006E0FFE741F2A6
:101B10000020C0F27A000190FFE701980BB07047F7
:101B200080B586B00490049820B9FFE701208DF8B5
:101B300017002EE304980078C007002800F0AE805C
:101B4000FFE741F20400C4F20200006800F00C005C
:101B5000042813D0FFE741F20400C4F20200006839
:101B600000F00C0008281BD1FFE741F20400C4F28A
:101B700002000068C003002812D5FFE741F2000010
:101B8000C4F2020000688003002808D5FFE704982B
:101B9000406820B9FFE701208DF81700F9E27CE0EA
:101BA000FFE704984068B0F5803F09D1FFE741F2B4
:101BB0000001C4F20201086840F48030086032E09D
:101BC0000498406868B9FFE741F20001C4F20201DD
:101BD000086820F480300860086820F480200860DD
:101BE00020E004984068B0F5A02F0DD1FFE741F246
:101BF0000001C4F20201086840F48020086008680F
:101C000040F4803008600CE041F20001C4F20201AF
:101C1000086820F480300860086820F4802008609C
:101C2000FFE7FFE7FFE7FFE704984068D0B1FFE771
:101C3000FFF7EEFC0390FFE741F20000C4F2020060
:101C40000068800300280CD4FFE7FFF7E1FC03994C
:101C5000401A652804D3FFE703208DF8170098E2A7
:101C6000EAE719E0FFF7D4FC0390FFE741F2000038
:101C7000C4F202000068800300280CD5FFE7FFF7DC
:101C8000C7FC0399401A652804D3FFE703208DF8A9
:101C900017007EE2EAE7FFE7FFE7FFE70498007836
:101CA0008007002840F18D80FFE741F20400C4F274
:101CB0000200006810F00C0F13D0FFE741F204009F
:101CC000C4F20200006800F00C00082829D1FFE7E8
:101CD00041F20400C4F202000068C003002820D4CE
:101CE000FFE741F20000C4F202000068800700280C
:101CF00009D5FFE704980069012804D0FFE7012017
:101D00008DF8170045E241F20001C4F202010868B3
:101D100020F0F800049A526940EAC2000860FFE728
:101D20004EE00498006958B3FFE70021C4F2422155
:101D300001200860FFF76CFC0390FFE741F2000010
:101D4000C4F202000068800700280CD4FFE7FFF708
:101D50005FFC0399401A032804D3FFE703208DF8A2
:101D6000170016E2EAE741F20001C4F20201086836
:101D700020F0F800049A526940EAC20008601EE0B0
:101D80000021C4F2422100200860FFF741FC0390CB
:101D9000FFE741F20000C4F202000068800700285B
:101DA0000CD5FFE7FFF734FC0399401A032804D34E
:101DB000FFE703208DF81700EBE1EAE7FFE7FFE715
:101DC000FFE7049800780007002848D5FFE704984B
:101DD000806918B3FFE740F28041C4F2422101203C
:101DE0000860FFF715FC0390FFE741F22400C4F2FE
:101DF00002000068800700280CD4FFE7FFF708FC0A
:101E00000399401A032804D3FFE703208DF8170035
:101E1000BFE1EAE7012001F063FB1FE040F28041EF
:101E2000C4F2422100200860FFF7F2FB0390FFE7B5
:101E300041F22400C4F202000068800700280CD59B
:101E4000FFE7FFF7E5FB0399401A032804D3FFE7F8
:101E500003208DF817009CE1EAE7FFE7FFE704980D
:101E600000784007002840F1D880FFE700208DF877
:101E7000070041F21C00C4F202000068C000002804
:101E800013D4FFE7FFE741F21C00C4F2020001682F
:101E900041F080510160006800F08050009000988F
:101EA000FFE701208DF80700FFE747F20000C4F2CA
:101EB00000000068C005002822D4FFE747F20001B7
:101EC000C4F20001086840F480700860FFF7A0FBCE
:101ED0000390FFE747F20000C4F200000068C0056D
:101EE00000280CD4FFE7FFF793FB0399401A6528FD
:101EF00004D3FFE703208DF817004AE1EAE7FFE784
:101F0000FFE70498C068012809D1FFE741F22001EA
:101F1000C4F20201086840F00100086031E0049852
:101F2000C06868B9FFE741F22001C4F20201086805
:101F300020F001000860086820F0040008601FE03D
:101F40000498C06805280DD1FFE741F22001C4F2D2
:101F50000201086840F004000860086840F00100D1
:101F600008600CE041F22001C4F20201086820F090
:101F700001000860086820F004000860FFE7FFE740
:101F8000FFE7FFE70498C068E0B1FFE7FFF740FB19
:101F90000390FFE741F22000C4F2020000688007CE
:101FA00000280ED4FFE7FFF733FB0399401A41F2F4
:101FB0008931884204D3FFE703208DF81700E8E059
:101FC000E8E71BE0FFF724FB0390FFE741F2200066
:101FD000C4F202000068800700280ED5FFE7FFF773
:101FE00017FB0399401A41F28931884204D3FFE775
:101FF00003208DF81700CCE0E8E7FFE79DF8070025
:10200000012809D1FFE741F21C01C4F2020108686E
:1020100020F080500860FFE7FFE70498C0690028BF
:1020200000F0B380FFE741F20400C4F20200006850
:1020300000F00C00082800F08280FFE70498C069D7
:1020400002285CD1FFE76021C4F242210020086031
:10205000FFF7DEFA0390FFE741F20000C4F202004E
:102060000068800100280CD5FFE7FFF7D1FA03993B
:10207000401A032804D3FFE703208DF8170088E0F7
:10208000EAE70498006AB0F5803F0CD1FFE741F21F
:102090000401C4F20201086820F40030049A926836
:1020A00010430860FFE741F20401C4F2020108682E
:1020B00020F47410049B1A6A5B6A1A431043086088
:1020C0006021C4F2422101200860FFF7A1FA0390C9
:1020D000FFE741F20000C4F202000068800100281E
:1020E0000CD4FFE7FFF794FA0399401A032804D3AE
:1020F000FFE703208DF817004BE0EAE71EE06021C0
:10210000C4F2422100200860FFF782FA0390FFE743
:1021100041F20000C4F202000068800100280CD5E2
:10212000FFE7FFF775FA0399401A032804D3FFE786
:1021300003208DF817002CE0EAE7FFE724E004987D
:10214000C069012804D1FFE701208DF8170020E0C5
:1021500041F20400C4F2020000680290029800F408
:1021600080300499096A884208D1FFE7029800F498
:1021700070100499496A884204D0FFE701208DF865
:10218000170006E0FFE7FFE7FFE700208DF81700E4
:10219000FFE79DF8170006B080BD000080B582B053
:1021A0000190019801F0BCF902B080BD81B00090AF
:1021B00001B0704781B0009001B0704785B00390C6
:1021C0000291FFE7039890F83C00012804D1FFE753
:1021D00002208DF813005BE00399012081F83C0098
:1021E000FFE7FFE70399022081F83D0003980068AC
:1021F000406801900398006880680090019820F082
:1022000070000190029801680198084301900198BC
:102210000399096848600398006842F60041C4F2D7
:102220000101884218D0FFE703980068B0F1804FA1
:1022300012D0FFE70398006840F20041C4F20001A9
:10224000884209D0FFE70398006840F60001C4F215
:10225000000188420ED1FFE7009820F08000009036
:102260000298416800980843009000980399096813
:102270008860FFE70399012081F83D00FFE703999B
:10228000002081F83C00FFE700208DF81300FFE7F5
:102290009DF8130005B0704780B582B0009000989B
:1022A00020B9FFE701208DF807003FE0009890F883
:1022B0003D0040B9FFE70099002081F83C000098FC
:1022C00000F038F8FFE70099022081F83D000099FE
:1022D00051F8040B01F092F90099012081F84600B1
:1022E000FFE70099012081F83E00009981F83F0046
:1022F000009981F84000009981F84100FFE7FFE76D
:102300000099012081F84200009981F8430000996A
:1023100081F84400009981F84500FFE70099012009
:1023200081F83D0000208DF80700FFE79DF80700C9
:1023300002B080BD80B584B0039003980068B0F10E
:10234000804F19D1FFE7FFE741F21C00C4F2020001
:10235000016841F001010160006800F00100029095
:102360000298FFE71C20019000221146FFF7EEF9CA
:102370000198FFF7E1F9FFE704B080BD83B0019059
:10238000019890F83D00012804D0FFE701208DF866
:102390000B0047E00199022081F83D000198016897
:1023A000C86840F00100C8600198006842F600412A
:1023B000C4F20101884218D0FFE701980068B0F12B
:1023C000804F12D0FFE70198006840F20041C4F24C
:1023D0000001884209D0FFE70198006840F600013B
:1023E000C4F20001884212D1FFE7019800688068BA
:1023F00000F0070000900098062807D0FFE701983A
:102400000168086840F001000860FFE706E00198F5
:102410000168086840F001000860FFE700208DF8BF
:102420000B00FFE79DF80B0003B0704780B586B046
:1024300004900391FFE7049890F83C00012804D130
:10244000FFE702208DF81700A7E00499012081F82A
:102450003C00FFE7FFE70499022081F83D00049863
:10246000006880680290029820F07700029002983D
:1024700020F47F40029002980499096888600398CC
:1024800000680190002872D0FFE7019810286ED0F4
:10249000FFE7019820286AD0FFE70198302866D02E
:1024A000FFE70198402855D0FFE70198502837D022
:1024B000FFE70198602840D0FFE7019870280BD013
:1024C000FFE70198B0F5805F05D0FFE70198B0F510
:1024D000005F16D052E052E004980068039B5A68EF
:1024E0009968DB6801F002F904980068806802903E
:1024F000029840F077000290029804990968886079
:102500003DE004980068039B5A689968DB6801F015
:10251000EDF804980168886840F4804088602EE0F7
:1025200004980068039A5168D26801F00FF9049882
:102530000068502101F0F4F821E004980068039A43
:102540005168D26801F02AF904980068602101F00E
:10255000E7F814E004980068039A5168D26801F023
:10256000F5F804980068402101F0DAF807E00498D3
:1025700000680399096801F0D3F800E0FFE70499C7
:10258000012081F83D00FFE70499002081F83C001C
:10259000FFE700208DF81700FFE79DF8170006B051
:1025A00080BD000081B0009001B0704780B582B05E
:1025B000019001980068006900F002010020B0EB72
:1025C000510F28D0FFE701980068C06800F00201B1
:1025D0000020B0EB510F1DD0FFE7019801686FF0AC
:1025E000020008610199012008770198006880695C
:1025F000800720B1FFE70198FFF7D4FF06E00198BC
:1026000000F012F9019800F013F9FFE7019900209A
:102610000877FFE7FFE701980068006900F0040110
:102620000020B0EB910F29D0FFE701980068C06847
:1026300000F004010020B0EB910F1ED0FFE70198DD
:1026400001686FF004000861019902200877019881
:102650000068806910F4407F04D0FFE70198FFF71D
:10266000A1FF06E0019800F0DFF8019800F0E0F823
:10267000FFE7019900200877FFE7FFE7019800686E
:10268000006900F008010020B0EBD10F28D0FFE76F
:1026900001980068C06800F008010020B0EBD10F7D
:1026A0001DD0FFE7019801686FF0080008610199EB
:1026B0000420087701980068C069800720B1FFE70F
:1026C0000198FFF76FFF06E0019800F0ADF8019860
:1026D00000F0AEF8FFE7019900200877FFE7FFE779
:1026E00001980068006900F010010020B0EB111F94
:1026F00029D0FFE701980068C06800F010010020B1
:10270000B0EB111F1ED0FFE7019801686FF01000B9
:10271000086101990820087701980068C06910F4E1
:10272000407F04D0FFE70198FFF73CFF06E00198E7
:1027300000F07AF8019800F07BF8FFE7019900209B
:102740000877FFE7FFE7019800680069C00780B1DC
:10275000FFE701980068C068C00748B1FFE701982B
:1027600001686FF001000861019800F065F8FFE76B
:10277000FFE7019800680069C1B20020B0EBD11FEB
:1027800013D0FFE701980068C068C1B20020B0EB29
:10279000D11F09D0FFE7019801686FF08000086140
:1027A0000198FFF703FDFFE7FFE701980068006964
:1027B00000F040010020B0EB911F14D0FFE701981A
:1027C0000068C06800F040010020B0EB911F09D004
:1027D000FFE7019801686FF040000861019800F080
:1027E0004FF8FFE7FFE701980068006900F020015B
:1027F0000020B0EB511F14D0FFE701980068C068BB
:1028000000F020010020B0EB511F09D0FFE7019834
:1028100001686FF0200008610198FFF7CBFCFFE72B
:10282000FFE702B080BD000081B0009001B07047AA
:1028300081B0009001B0704781B0009000980068AE
:10284000B0F1804F1AD1FFE740F21800C2F2000049
:102850000168013101600068B0F5FA7F0DD1FFE732
:1028600040F21801C2F200010020086040F21E018F
:10287000C2F2000101200880FFE7FFE701B07047C6
:1028800081B0009001B0704782B00190ADF80210A5
:1028900002B0704780B582B001900020009001988E
:1028A00000684069C0B2C0090090019890F83D00EE
:1028B000212816D1FFE7009898B1FFE70198016839
:1028C000486920F0800048610198406B28B1FFE71B
:1028D0000198406BFEF71CFAFFE7019801F09AF8A7
:1028E000FFE7019800684069C0F3801000900198EC
:1028F00090F83E00222816D1FFE7009898B1FFE734
:1029000001980168486920F0400048610198806B97
:1029100028B1FFE70198806BFEF7FAF9FFE701980D
:1029200001F040F8FFE7002002B080BD81B00090C8
:1029300001B0704780B588B00790079800680068BC
:10294000069007980068C06805900798006840697D
:102950000490002003900290069800F00F0003906E
:10296000039888B9FFE79DF81800800600280AD56B
:10297000FFE79DF814008006002804D5FFE70798BC
:1029800001F056F876E1FFE70398002800F0B480E4
:10299000FFE79DF81000C00738B9FFE7BDF8140045
:1029A00010F4907F00F0A880FFE79DF81800C007A2
:1029B00058B1FFE79DF81500C00730B1FFE7079950
:1029C000086C40F001000864FFE79DF8180040071C
:1029D00000280BD5FFE79DF81000C00730B1FFE7D6
:1029E0000799086C40F002000864FFE79DF81800A2
:1029F000800700280BD5FFE79DF81000C00730B115
:102A0000FFE70799086C40F004000864FFE79DF8B1
:102A100018000007002811D5FFE79DF81400800674
:102A2000002805D4FFE79DF81000C00730B1FFE78C
:102A30000799086C40F008000864FFE70798006CED
:102A4000002858D0FFE79DF81800800600280AD516
:102A5000FFE79DF814008006002804D5FFE70798DB
:102A600000F0E6FFFFE7079800684069C0F38010B8
:102A700002900798006C0007002803D4FFE7029833
:102A800088B3FFE7079800F08DFF0798006840695A
:102A90004006002822D5FFE707980168486920F022
:102AA000400048610798806B98B1FFE70798816BF9
:102AB00043F2F170C0F6000048630798806BFEF7A0
:102AC00065F928B1FFE70798806B416B8847FFE7FE
:102AD00003E00798FFF72AFFFFE703E00798FFF7F7
:102AE00025FFFFE706E00798FFF720FF0799002082
:102AF0000864FFE7FFE7BDE00798006B012840F09E
:102B00009980FFE79DF81800C006002840F19280E8
:102B1000FFE79DF81400C006002840F18B80FFE716
:102B2000FFE700200190079800680068019007986F
:102B30000068406801900198FFE7079800684069C5
:102B40004006002848D5FFE70798806B006840687A
:102B5000ADF80200BDF80200E8B3FFE7BDF80200DF
:102B60000799898D884236DAFFE7BDF80200079998
:102B7000C8850798806B8069202824D0FFE70798D4
:102B80000168C86820F48070C860079801684869C7
:102B900020F00100486107980168486920F0400072
:102BA00048610799202081F83E00079900200863BA
:102BB00007980168C86820F01000C8600798806B0B
:102BC000FEF7A6F8FFE70798818DC28D891A89B2B2
:102BD000FFF75AFEFFE74DE00799888DC98D401A2F
:102BE000ADF800000798C08D18B3FFE7BDF80000EE
:102BF000F8B1FFE707980168C86820F49070C860D2
:102C000007980168486920F0010048610799202071
:102C100081F83E0007990020086307980168C8689A
:102C200020F01000C8600798BDF80010FFF72CFED8
:102C3000FFE71FE09DF81800000600280AD5FFE70F
:102C40009DF814000006002804D5FFE7079801F05E
:102C500053F80FE09DF81800400600280AD5FFE75A
:102C60009DF814004006002804D5FFE7079800F0FF
:102C7000BDFEFFE708B080BD80B582B0009000982F
:102C800020B9FFE701208DF807003EE00098806939
:102C900008B1FFE700E0FFE7009890F83D0040B979
:102CA000FFE70099002081F83C00009800F032F81E
:102CB000FFE70099242081F83D0000980168C8686A
:102CC00020F40050C860009800F058FF0098016898
:102CD000086920F49040086100980168486920F074
:102CE0002A00486100980168C86840F40050C86034
:102CF000009900200864009A202182F83D10009A73
:102D000082F83E108DF80700FFE79DF8070002B03B
:102D100080BD000080B59EB01D9000201C901B90CF
:102D20001A9019901D98006843F60001C4F2010141
:102D3000884240F08B80FFE7FFE741F21800C4F2C1
:102D40000200016841F480410160006800F48040A5
:102D500018901898FFE7FFE741F21800C4F202004C
:102D6000016841F004010160006800F00400179060
:102D70001798FFE74FF40070199002201A90032073
:102D80001C9040F60000C4F201000F9019A91091A8
:102D9000FEF7AEFA0F9810994FF480621992002254
:102DA00011921A921B92FEF7A3FA119940F2200099
:102DB000C2F2000012905822C4F202020260416086
:102DC00081608022C260016141618161C161FEF761
:102DD000AFF918B1FFE7FDF793FFFFE7FFE71D9895
:102DE00040F22001C2F2000181631D984862FFE7B2
:102DF00040F26400C2F200000E904421C4F20201CD
:102E0000016010214160002181608022C260016167
:102E100041618161C161FEF78BF918B1FFE7FDF7F0
:102E20006FFFFFE7FFE71D9840F26401C2F2000167
:102E300041631D984862FFE725200D90002211464E
:102E4000FEF784FC0D98FEF777FC27E11D980068DB
:102E500044F20041C4F20001884240F08980FFE75B
:102E6000FFE741F21C00C4F20200016841F40031A6
:102E70000160006800F4003016901698FFE7FFE745
:102E800041F21800C4F20200016841F0040101603F
:102E9000006800F0040015901598FFE704201990D1
:102EA00002201A9003201C9040F60000C4F201009A
:102EB000099019A90A91FEF71BFA09980A990822A4
:102EC000199200220B921A921B92FEF711FA0B999B
:102ED00040F2A800C2F200000C906C22C4F2020280
:102EE0000260416081608022C26001614161816154
:102EF000C161FEF71DF918B1FFE7FDF701FFFFE71C
:102F0000FFE71D9840F2A801C2F2000181631D98FD
:102F10004862FFE740F2EC00C2F200000890802116
:102F2000C4F2020101601021416000218160802211
:102F3000C260016141618161C161FEF7F9F818B1B8
:102F4000FFE7FDF7DDFEFFE7FFE71D9840F2EC012C
:102F5000C2F2000141631D984862FFE726200790F6
:102F600000221146FEF7F2FB0798FEF7E5FB94E01E
:102F70001D98006844F60001C4F20001884240F048
:102F80008B80FFE7FFE741F21C00C4F202000168FA
:102F900041F480210160006800F4802014901498AE
:102FA000FFE7FFE741F21800C4F20200016841F0B8
:102FB00008010160006800F0080013901398FFE713
:102FC0004FF48060199002201A9003201C9040F664
:102FD0000040C4F20100039019A90491FEF788F99A
:102FE000039804994FF400621992002205921A92F4
:102FF0001B92FEF77DF9059940F23010C2F20000F5
:1030000006903022C4F20202026041608160802298
:10301000C260016141618161C161FEF789F818B147
:10302000FFE7FDF76DFEFFE7FFE71D9840F2301167
:10303000C2F2000181631D984862FFE740F27410FC
:10304000C2F2000002901C21C4F2020101601021B2
:103050004160002181608022C26001614161816123
:10306000C161FEF765F818B1FFE7FDF749FEFFE71C
:10307000FFE71D9840F27411C2F2000141631D98F0
:103080004862FFE72720019000221146FEF75EFB11
:103090000198FEF751FBFFE7FFE7FFE71EB080BD99
:1030A00080B584B002900191ADF80220029890F8AA
:1030B0003E00202828D1FFE7019820B1FFE7BDF8A6
:1030C000020020B9FFE701208DF80F0020E0FFE7A4
:1030D000029890F83C00012804D1FFE702208DF807
:1030E0000F0015E00299012081F83C00FFE7FFE79F
:1030F00002990020086302980199BDF8022000F0AF
:103100009BFD8DF80F0003E002208DF80F00FFE714
:103110009DF80F0004B080BD81B0009001B07047F1
:1031200081B0009001B0704780B586B004900391E3
:10313000ADF80A20049890F83D00202867D1FFE7F9
:10314000039820B1FFE7BDF80A0020B9FFE701208E
:103150008DF817005FE0FFE7049890F83C00012825
:1031600004D1FFE702208DF8170054E004990120F4
:1031700081F83C00FFE7FFE7039804990862BDF877
:103180000A0004998884BDF80A000499C884049947
:1031900000200864049A212182F83D1004994A6BAA
:1031A00043F64511C0F60001916204994A6B43F65B
:1031B0008D11C0F60001D16204994A6B43F61101EA
:1031C000C0F6000111630499496B486303A801909C
:1031D00004980268406B019909680432BDF80A300E
:1031E000FDF7FEFF049801686FF040000860FFE7FC
:1031F0000499002081F83C00FFE7049801684869C1
:1032000040F08000486100208DF8170003E00220A4
:103210008DF81700FFE79DF8170006B080BD00008D
:1032200081B0009001B0704781B0009001B070474C
:10323000FFE7FEE780B588B0FFE741F21400C4F273
:103240000200016841F001010160006800F0010026
:1032500007900798FFE70C20009000220592114686
:10326000FEF774FA0098FEF767FA059A0D200190B0
:103270001146FEF76BFA0198FEF75EFA059A0E20EA
:1032800002901146FEF762FA0298FEF755FA059A87
:103290000F2003901146FEF759FA0398FEF74CFAF7
:1032A000059A102004901146FEF750FA0498FEF794
:1032B00043FA059A112006901146FEF747FA069840
:1032C000FEF73AFA08B080BD83B0FFE741F218007C
:1032D000C4F20200016841F020010160006800F0C2
:1032E000200002900298FFE7FFE741F21800C4F2C5
:1032F0000200016841F004010160006800F0040070
:1033000001900198FFE7FFE741F21800C4F20200C4
:10331000016841F008010160006800F008000090B9
:103320000098FFE703B0704780B588B00021019195
:1033300007910691059104910391029140F2B81012
:10334000C2F200004FF0804202604722426081607A
:103350004FF47A72C26001618161FEF79DFF18B17E
:10336000FFE7FDF7CDFCFFE74FF48050049040F2FB
:10337000B810C2F2000004A9FFF758F818B1FFE72F
:10338000FDF7BEFCFFE700200290039040F2B8106A
:10339000C2F2000002A9FEF711FF18B1FFE7FDF726
:1033A000AFFCFFE708B080BD80B582B040F20020DE
:1033B000C2F20000019043F60001C4F20101016075
:1033C0004FF4E131416000218160C16001610C2254
:1033D00042618161C161FFF74FFC18B1FFE7FDF762
:1033E0008FFCFFE702B080BD80B582B040F2442080
:1033F000C2F20000019044F20041C4F200010160F9
:103400004FF4E131416000218160C16001610C2213
:1034100042618161C161FFF72FFC18B1FFE7FDF741
:103420006FFCFFE702B080BD80B582B040F288201B
:10343000C2F20000019044F60001C4F200010160F4
:103440004FF4E131416000218160C16001610C22D3
:1034500042618161C161FFF70FFC18B1FFE7FDF721
:103460004FFCFFE702B080BDFFE7FEE7FFE7FEE7A6
:1034700088B0079006910592079800F00700049025
:103480000498C0F10700052803D3FFE7042001904A
:1034900004E00498C0F107000190FFE70198039051
:1034A00004980430062803D8FFE70020009003E0CA
:1034B000049803380090FFE700980290069803995B
:1034C000012202FA01F101390840029B9840059956
:1034D0009A40013A1140084308B070477047000015
:1034E00082B00190019840F20801C2F2000109681F
:1034F000C90844F6D352C1F26202A1FB0221890934
:1035000048430090FFE700BFFFE70098411E00918D
:103510000028F8D1FFE702B07047000070470000B4
:1035200080B582B0009000980138B0F1807F03D35D
:10353000FFE70120019019E0009801384EF21401D4
:10354000CEF2000108604FF0FF300F2100F0D2FDF5
:103550004EF21801CEF20001002008604EF2100277
:10356000CEF20002072111600190FFE7019802B03E
:1035700080BD000080B5FEF751F880BD80B590B0E9
:1035800006A800902821FCF7D4FD0098002305939D
:103590000493039302930193012206924FF4803126
:1035A000079108930A9202220D920E914FF4E011B6
:1035B0000F91FEF7B5FA18B1FFE7FDF7A1FBFFE7A2
:1035C0000F20019002210291002003904FF48062AD
:1035D0000492059001A8FEF7DBF818B1FFE7FDF7AC
:1035E0008FFBFFE710B080BD7047000080B540F250
:1035F000B810C2F20000FEF7D9FF80BD83B0029080
:103600000191029800680090029842F60041C4F2CD
:103610000101884215D0FFE70298B0F1804F10D029
:10362000FFE7029840F20041C4F20001884208D04E
:10363000FFE7029840F60001C4F2000188420AD177
:10364000FFE7009820F07000009001984168009812
:1036500008430090FFE7029842F60041C4F20101DE
:10366000884215D0FFE70298B0F1804F10D0FFE7F5
:10367000029840F20041C4F20001884208D0FFE7FE
:10368000029840F60001C4F2000188420AD1FFE727
:10369000009820F4407000900198C1680098084399
:1036A0000090FFE7009820F08000019949690843E5
:1036B0000090009802990860019880680299C86299
:1036C0000198006802998862029842F60041C4F2AB
:1036D0000101884205D1FFE701980069029908635A
:1036E000FFE702990120486103B0704785B004905C
:1036F000039102920193049880680090009820F44E
:103700007F40009003980299019A41EA0221014307
:1037100000980843009000980499886005B07047AD
:1037200083B002900191029880680090009820F088
:103730007000009001980099084340F00700009045
:1037400000980299886003B07047000085B004902B
:10375000039102920498006A00900499086A20F08C
:1037600001000862049880690190019820F0F0003F
:1037700001900299019840EA01100190009820F010
:103780000A0000900399009808430090019804995A
:10379000886100980499086205B0704785B004906C
:1037A000039102920499086A20F0100008620498BC
:1037B000806901900498006A0090019820F470409C
:1037C00001900299019840EA01300190009820F0A0
:1037D000A00000900399009840EA01100090019821
:1037E0000499886100980499086205B07047000048
:1037F00080B582B001900198406A00900099002045
:10380000C8850099C8840098FFF790F802B080BD81
:1038100080B584B00390002002900398406A019024
:10382000019800684069C0B2C0090290019890F800
:103830003D0021280AD1FFE7029838B1FFE701993E
:103840000020C884019800F0E5F8FFE701980068BF
:103850004069C0F380100290019890F83E00222841
:103860000AD1FFE7029838B1FFE701990020C88527
:10387000019800F097F8FFE70199086C40F01000FC
:1038800008640198FFF752F804B080BD80B582B09B
:1038900001900198406A00900198006800688006D5
:1038A000002826D4FFE700990020C8850098016809
:1038B000C86820F48070C86000980168486920F0EA
:1038C0000100486100980168486920F040004861A3
:1038D0000099202081F83E000098006B012807D154
:1038E000FFE700980168C86820F01000C860FFE793
:1038F000FFE70098006B012805D1FFE70098818D54
:10390000FEF7C2FF03E00098FFF706FCFFE702B0F6
:1039100080BD000080B582B001900198406A00909F
:103920000098006B012806D1FFE70098818D4908B7
:10393000FEF7AAFF03E00098FFF7F2FBFFE702B0F3
:1039400080BD000080B582B001900198406A00906F
:103950000198006800688006002810D4FFE70099ED
:103960000020C88400980168486920F08000486100
:1039700000980168C86840F04000C86003E0009803
:10398000FFF74EFCFFE702B080BD000080B582B0BB
:1039900001900198406A00900098FFF745FC02B042
:1039A00080BD000081B0009000980168C86820F4D4
:1039B0009070C86000980168486920F00100486173
:1039C0000098006B012807D1FFE700980168C868DC
:1039D00020F01000C860FFE70099202081F83E0029
:1039E00000990020086301B07047000080B582B0E4
:1039F000019001980168C86820F04000C8600199F2
:103A0000202081F83D000198FFF70AFC002002B059
:103A100080BD000081B0009000980168C86820F067
:103A2000C000C8600099202081F83D0001B07047B7
:103A300080B586B00490049890F83E00222840F0AB
:103A40009480FFE704988068B0F5805F15D1FFE7A8
:103A50000498006988B9FFE7002003900498806A01
:103A600002900498006840686FF35F200299088014
:103A70000499886A0230886225E00498806A03907D
:103A80000020029004988068B0F5805F08D0FFE7BE
:103A90000498806850B9FFE70498006930B9FFE7DF
:103AA0000498006840680399087007E0049800686B
:103AB000406800F07F0003990870FFE70499886A66
:103AC00001308862FFE70499C88D0138C885000479
:103AD000002846D1FFE704980168C86820F020005C
:103AE000C86004980168C86820F48070C8600498B1
:103AF0000168486920F0010048610499202081F89C
:103B00003E000498006B012823D1FFE704990020B0
:103B1000086304980168C86820F01000C860049821
:103B200000680068C00600280ED5FFE7FFE7002008
:103B3000019004980068006801900498006840684B
:103B400001900198FFE7FFE70498818DFEF79CFE46
:103B500003E00498FFF7E0FAFFE700208DF8170074
:103B600007E000208DF8170003E002208DF8170011
:103B7000FFE79DF8170006B080BD000080B584B057
:103B8000039003980068006920F44050039A11687C
:103B9000D26810430861039988680A69496910432B
:103BA0000843029003980068C06841F20C618843A2
:103BB0000299084303990968C8600398006840693E
:103BC00020F44070039A1168926910434861039889
:103BD000006843F60001C4F20101884204D1FFE706
:103BE000FDF71AFF019003E0FDF704FF0190FFE7E6
:103BF000019819214843039A116852689200B0FB5A
:103C0000F2FC48F21F52C5F2EB12ACFB0230430942
:103C1000642003FB10CC322000EB0C10A0FB02024E
:103C2000F02000EA521000EB0310C2F343121044DC
:103C3000886004B080BD000080B586B00590049116
:103C4000ADF80E20049805998862BDF80E0005991C
:103C50008885059900200864059A222182F83E1083
:103C600005998A6B43F68D01C0F6000191620599B2
:103C70008A6B43F61511C0F60001D16205998A6B73
:103C800043F61101C0F6000111630599896B486381
:103C900004A8029005980168806B0431029A1268AA
:103CA000BDF80E30FDF79CFAFFE700200190059863
:103CB00000680068019005980068406801900198CC
:103CC000FFE7FFE70599002081F83C00FFE7059832
:103CD0000168C86840F48070C86005980168486948
:103CE00040F00100486105980168486940F04000D3
:103CF0004861002006B080BD83B00190019890F823
:103D00003D0021283AD1FFE701988068B0F5805F37
:103D100013D1FFE70198006978B9FFE70198006ABD
:103D20000090009800886FF35F200199096848604F
:103D30000199086A0230086208E0019A106A411C81
:103D400011620078019909684860FFE70199C88C01
:103D50000138C884000468B9FFE701980168C868A1
:103D600020F08000C86001980168C86840F04000F9
:103D7000C860FFE700208DF80B0003E002208DF8FB
:103D80000B00FFE79DF80B0003B0704780B584B0CF
:103D900040F20020C2F200000290FEF7CBFD029834
:103DA0000068006800F010010020B0EB111F2DD05A
:103DB000FFE7FFE70020039040F20020C2F200007E
:103DC0000168096803910068406803900398FFE761
:103DD00040F20020C2F200000190FEF75BFD019866
:103DE00040F22001C2F2000109684968C1F1800275
:103DF00040F21031C2F20001A1F88620012281F8C0
:103E0000082188318022FFF74BF9FFE704B080BD1D
:103E100080B584B040F24420C2F200000290FEF768
:103E200089FD02980068006800F010010020B0EBE6
:103E3000111F2DD0FFE7FFE70020039040F2442040
:103E4000C2F20000016809680391006840680390AD
:103E50000398FFE740F24420C2F200000190FEF711
:103E600019FD019840F2A801C2F2000109684968F1
:103E7000C1F1800240F21A41C2F20001A1F886208D
:103E8000012281F8082188318022FFF709F9FFE734
:103E900004B080BD80B584B040F28820C2F200003A
:103EA0000290FEF747FD02980068006800F01001DC
:103EB0000020B0EB111F2ED0FFE7FFE7002003909A
:103EC00040F28820C2F2000001680968039100688E
:103ED000406803900398FFE740F28820C2F2000098
:103EE0000190FEF7D7FC019840F23011C2F20001B8
:103EF00009684968C1F5007240F22451C2F200011C
:103F0000A1F88620012281F8882288314FF40072BE
:103F1000FFF7C6F8FFE704B080BD0000FFE7FEE74B
:103F200080B588B00A20FDF7C1F940F22450C2F2F2
:103F300000000690883004904FF400710591FCF762
:103F4000F8F806990020079081F88802A1F8860009
:103F500040F28820C2F20000029044F6D561C0F61B
:103F600000010422FFF7E0F8C8200390FDF79EF956
:103F7000029844F6C761C0F600010D220192FFF7D6
:103F8000D3F80398FDF792F9019A029844F68E61EE
:103F9000C0F60001FFF7C8F80398FDF787F902980B
:103FA00044F67861C0F600011522FFF7BDF80398CA
:103FB000FDF77CF9029844F69C61C0F600012A22C4
:103FC000FFF7B2F80398FDF771F904980599FCF72B
:103FD000B0F80699079881F88802A1F8860008B021
:103FE00080BD000010B58EB00D900C918DF82F2083
:103FF00040F2AE71C2F2000108910020888388610E
:1040000048610861C86088604860086040F22450D8
:10401000C2F20000069088304FF40071FCF789F876
:104020000D98FCF72AF9049005910C98FCF725F9F6
:10403000049A059B84460698CDF81CC08E460799C5
:104040009DF82F40EC46CCF80840CCF804E0CCF8C2
:1040500000100430099044F6EE61C0F6000100F053
:1040600033FA0998FCF770F80246089844F6DA61CA
:10407000C0F6000100F028FA0898FCF765F80899E6
:1040800082B240F28820C2F200000A90FFF74CF89A
:10409000C820FDF70BF90998FCF756F80999024674
:1040A0000A9892B2FFF740F86420FDF7FFF80EB0CF
:1040B00010BD000081B08DF803009DF903000028B9
:1040C0000ED4FFE79DF9031001F01F02012090407C
:1040D0004A094EF20011CEF2000141F82200FFE73A
:1040E00001B070474EF60C50CEF200000068C0F3ED
:1040F0000220704782B08DF8070000919DF90700FB
:1041000000280AD4FFE7009800019DF907104EF23D
:104110000042CEF2000288540BE0009800019DF8A6
:10412000071001F00F014EF61452CEF2000288542F
:10413000FFE702B07047000083B00290029800F0E1
:10414000070000904EF60C51CEF200010868019075
:1041500001984FF6FF02104001900198009A40EA42
:1041600002200022C0F2FA52104301900198086028
:1041700003B0704780B586B000200590FDF75CFA6B
:10418000FFF7FCF9FFF7A0F8FFF754F8FFF7CCF8BA
:10419000FFF70AF9FFF728F9FFF746F940F2002088
:1041A000C2F200000268D16841F01001D16040F213
:1041B0001031C2F20001883180220492FEF770FFB4
:1041C000049A40F24420C2F200000368D96841F02A
:1041D0001001D96040F21A41C2F200018831FEF7A5
:1041E0005FFF40F28820C2F200000268D16841F00F
:1041F0001001D16040F22451C2F2000188314FF425
:104200000072FEF74DFFFFF78BFE40F2B810C2F2CE
:104210000000FEF7B3F8FFE740F21030C2F20000F2
:1042200090F80801012875D1FFE740F21030C2F282
:104230000000002180F80811B0F8860003285CDB3C
:10424000FFE740F21030C2F2000090F88800AA2880
:104250003BD1FFE740F21030C2F2000090F88A0034
:10426000552832D1FFE740F21030C2F2000090F83A
:104270008900012807D1FFE740F21C01C2F20001CA
:104280000120087020E040F21030C2F2000090F8E7
:104290008900022807D1FFE740F21C01C2F20001A9
:1042A000022008700FE040F21030C2F2000090F8D7
:1042B000890038B9FFE740F21C01C2F2000100207A
:1042C0000870FFE7FFE7FFE70BE040F21030C2F2B3
:1042D00000000021A0F8861088308021FBF729FF1C
:1042E000FFE740F21030C2F200000021A0F8861073
:1042F00088308021FBF71DFF0BE040F21030C2F246
:1043000000000021A0F8861088308021FBF711FF03
:10431000FFE7FFE740F21A40C2F2000090F8080100
:1043200001286AD1FFE740F21A40C2F200000021E2
:1043300080F808118830FBF707FF2E2850D3FFE7DD
:1043400040F21A40C2F20000883044F6EC61C0F638
:10435000000140F2D022C2F200020F2300F06EF8FA
:104360000C2828D1FFE740F2D020C2F200000190D3
:10437000C06800F03FFD002202920023C4F25903FE
:104380000393FBF70BFFFBF78BFF0146019840F20D
:10439000D072C2F200021160406900F02BFD029A57
:1043A000039BFBF7FBFEFBF77BFF40F2CC21C2F245
:1043B00000010860FFE740F2D020C2F200000021B7
:1043C000C0F80B1081604160016040F21A40C2F2F7
:1043D0000000A0F8861088308021FBF7AAFE0BE0D1
:1043E00040F21A40C2F200000021A0F88610883086
:1043F0008021FBF79EFEFFE7FFE740F21E00C2F2BE
:1044000000000088012818D1FFE740F21E01C2F227
:1044100000010020088040F2CC20C2F2000040F2EF
:10442000D071C2F2000140F21C02C2F20002127806
:1044300009680068FFF7D6FDFFE7EDE680B588B0B4
:10444000069005910492039300200190069828B1EC
:10445000FFE70698FBF778FE18B9FFE70020079002
:104460002EE0059828B1FFE70598FBF76DFE18B917
:10447000FFE70020079023E006980599FBF76CFE04
:104480000290FFE70298C0B1FFE7049830B1FFE760
:10449000029804990A1D04920860FFE70198013010
:1044A000019005990020FBF757FE029001980399AF
:1044B000884201DBFFE700E0E4E701980790FFE7AF
:1044C000079808B080BD00000FB4084B10B504A9D0
:1044D00002AA039800F0F2F8044602A9002000F0B6
:1044E00084FC204610BC5DF814FB0000EB4D000876
:1044F00001480068704700000400002002E008C87E
:10450000121F08C1002AFAD170477047002001E04D
:1045100001C1121F002AFBD1704700000149086049
:1045200070470000040000202DE9FF5F82B00021E9
:10453000DDE90430020DDDF840B0034318D044F645
:104540001050A2F2FF3242431514119801281FD0D7
:10455000A5EB0B00401C5FEA000A4FF000064E4F2F
:10456000DFF83891B046504615D5CAF1000413E083
:10457000119801244AA3012801D16FEA0B01029886
:10458000119AC0E90031C0E9024206B0BDE8F09FCF
:10459000CBF10000DFE704460021404A491842EB16
:1045A0000450CDE9001012E0E00707D032463B4648
:1045B00040464946FCF767F88046894632463B4606
:1045C00010461946FCF75FF806460F466410002CAB
:1045D000EAD1DDE90401DDE90023BAF1000F06DAD2
:1045E000FCF751F842464B46FCF74DF805E0FBF767
:1045F000D5FD42464B46FBF7D1FD04460E46002250
:10460000284BFCF7CBF803D84FF0FF30014607E00A
:104610000022254B20463146FBF78EFFFCF7A5F81C
:10462000102409E0002C0ADB0A220023FBF76AFEB3
:10463000039B30321A55641E50EA0102F2D1641C09
:10464000039AC4F111031444119A012A03D00122E0
:1046500008430DD10AE0084304D000204FF0110BAD
:10466000119072E7A3EB0B056D1E0DE05B4504DDB9
:104670004FF0000205F1010504E003DA4FF00002FB
:10468000A5F10105002AECD002981199C0E9023188
:10469000C0E9004579E70000000014400000F03F49
:1046A000300000000000F0430000E03F30380A28EE
:1046B00001D2012070470020704700002DE9FF4F14
:1046C00095B09B468946064600250FE2252877D1FE
:1046D00000242746F84A0121059400E0044316F817
:1046E000013F203B01FA03F01042F7D130782A282D
:1046F00011D06FF02F033078A0F13002092A16D8BC
:10470000059A44F0020402EB820203EB42021044D9
:10471000761C0590EFE759F8042B0592002A03DA7E
:10472000504244F40054059044F00204761C307862
:104730002E2816D116F8010F44F004042A280DD0B3
:104740006FF02F023078A0F13003092B09D807EB66
:10475000870302EB4303C718761CF3E759F8047B81
:10476000761C30786C280FD006DC4C2817D06828CF
:104770000DD06A2814D104E0742810D07A280FD103
:104780000DE044F400140AE044F4801401E044F421
:1047900040147278824202D104F58014761C761C93
:1047A000307866280BD013DC582877D009DC002835
:1047B00075D04528F6D04628F4D047281AD19DE177
:1047C00018E0632835D0642879D0652812D195E1A6
:1047D000702873D008DC6728F1D069286FD06E2864
:1047E0000DD06F2806D1B5E073282CD0752875D070
:1047F000782874D05A46179990476D1C75E1C4F318
:104800000250022809D003280DD0D9F8001004283E
:104810000DD00D6009F1040967E1D9F80010EA171D
:10482000C1E90052F6E7D9F800100D80F2E70D70EB
:10483000F0E719F8041B8DF8001000208DF8010036
:10484000EA46012003E059F804AB4FF0FF3061075E
:104850004FF0000102D40DE008F101018846B94291
:104860000FDA8045F8DB1AF808100029F4D108E0C7
:1048700008F1010188468142FADB1AF80810002984
:10488000F6D105985B46A0EB080721463846179AF3
:1048900000F094FA284400EB080507E04DE029E118
:1048A0000DE01AF8010B5A4617999047B8F1010824
:1048B000F7D25B4621463846179A13E142E00A22B6
:1048C0000092C4F302524FF0000A022A08D059F8AD
:1048D00004CB032A4FEAEC710AD00DE029E02AE06C
:1048E00009F1070121F00702F2E802C1914609E04F
:1048F0000FFA8CFC4FEAEC71042A03D14FFA8CFCBE
:104900004FEAEC71002907DA0A460021DCF1000CBD
:1049100061EB02012D2202E0220504D52B228DF845
:104920000420012203E0E20701D02022F7E79046AD
:1049300059E00A2102E010220DE010214FF0000A98
:1049400000910BE010224FF0000A44F00404082705
:10495000009203E008224FF0000A0092C4F30252D2
:10496000022A05D059F804CB0021032A08D009E017
:1049700009F1070121F00702F2E802C1914605E0C2
:104980001FFA8CFC042A01D10CF0FF0C4FF0000838
:10499000220728D5702806D0009B83F0100353EA25
:1049A0000A0305D00EE040228DF80420012208E021
:1049B0005CEA010206D030228DF804208DF8050053
:1049C00002229046009B83F0080353EA0A030AD1AF
:1049D0005CEA010201D1620705D530228DF804207E
:1049E0004FF001087F1E582804D034A003900EA871
:1049F00002900DE036A0F9E753466046009AFBF7B7
:104A000081FC84460398825C0298401E02900270EA
:104A10005CEA0100F0D1029806A9081A00F1200A08
:104A2000600702D524F4803400E00127574502DDF9
:104A3000A7EB0A0000E0002000EB0A0100900598B7
:104A40004144401A0590E00306D45B462146179A7C
:104A5000059800F0B3F90544002706E001A85A467E
:104A6000C05D179990476D1C7F1C4745F6DBE0033E
:104A70000CD55B462146179A059800F09FF905442E
:104A800004E030205A46179990476D1C0099481E43
:104A900000900029F5DC08E0029802995A46007857
:104AA000491C0291179990476D1CBAF10001AAF1B7
:104AB000010AF1DC65E100000928010030313233E0
:104AC000343536373839616263646566000000004A
:104AD0003031323334353637383941424344454634
:104AE0000000000000F058F90544761C30780028DA
:104AF0007FF4ECAD19B02846BDE8F08F620700D412
:104B0000062709F1070222F0070CFCE80223E14620
:104B100003F000485FEA080C02D00FF2702C0DE0A1
:104B20005FEA045C02D50FF2682C07E05FEAC47C00
:104B300002D00FF2602C01E0AFF2700C4FF0FF38A2
:104B400023F00043CDF850C065280CD006DC452882
:104B500009D046281DD047283DD13DE0662818D011
:104B600067287ED138E00021112F01DB112000E001
:104B7000781CCDE9000106A90EA8FFF7D5FCDDE9F8
:104B80000F010E9A03910021009207F1010A04918E
:104B90004DE04FF000400097CDE9011006A90EA8A6
:104BA000FFF7C2FCDDE90F0203920E9B1199002270
:104BB000DDF80CA00093049211B9791C00EB010AF6
:104BC000B7EB0A0004D4C0F1FF3007F1010A0490EA
:104BD000AAEB0700019044E0012F00DA0127002131
:104BE000112F01DD112000E03846CDE9000106A9B2
:104BF0000EA8FFF799FCDDE90F010E9A0391002141
:104C000004910092BA4621070CD40399514500DA69
:104C10008A46BAF1010F05DD009AAAF10101515C43
:104C2000302908D0B84202DA10F1040F06DA012167
:104C3000CDE9011015E0AAF10101E9E7002805DC42
:104C4000049901440491AAEB000102E0411C514582
:104C500000DD8A460499401A401C01904FF0004044
:104C60000290200704D40198504501DBCDF8048060
:104C700000208DF84F0002980DF14F07B0F1004F62
:104C800025D02B200E9002984FF0020800280CDA55
:104C9000404202902D200E9007E00A210298FBF777
:104CA0001BFB3031029007F8011DB8F10001A8F19B
:104CB0000108F2DC02980028EFD1791E0E980870E6
:104CC000307800F0200040F0450007F8020D12A8EF
:104CD000C01B00F107081498007800B1012000EB18
:104CE0000A01019801EBE07105984144401A401E09
:104CF0000590E00306D45B462146179A059800F01C
:104D00005DF805441498007818B15A4617999047F1
:104D10006D1CE00324D55B462146179A059800F0E8
:104D20004DF805441CE00498002807DBDDE9030189
:104D3000884203DD0098405C179901E01799302004
:104D40005A469047049805F10105401C04900198CB
:104D5000401E019004D12E205A46179990476D1C91
:104D6000BAF10001AAF1010ADDDC05E017F8010B38
:104D70005A46179990476D1CB8F10001A8F1010837
:104D8000F4DC5B462146179A0598ABE62D0000003F
:104D90002B000000200000002DE9F0410446002512
:104DA0001E461746880404D405E039462020B04743
:104DB0006D1C641EF9D52846BDE8F0812DE9F0414F
:104DC000044600251E469046C80301D5302700E062
:104DD0002027880404D505E041463846B0476D1CBD
:104DE000641EF9D52846BDE8F0810A68531C0B60A3
:104DF0001070704730B583B00446FFF779FB054665
:104E00000020CDE900000246012321466846FBF759
:104E1000CAFA2846FFF782FBDDE9000103B030BD86
:104E2000DDDDDDDDDCBBBBDDDDDDDDDDDDDDDDDDF7
:104E30009888888888888888777777777788888837
:104E400085555556666666666666666666688888CF
:104E50008333333222222222222222222228888DC8
:104E6000000000000000000001020304060708091A
:104E7000000000000102030441542B4349505345F4
:104E8000525645523D312C383038300D0A004154CD
:104E90002B4349504D55583D310D0A0041542B4389
:104EA000575341505F4355523D22536D61727468B0
:104EB0006F6D6531222C223132333435363738224A
:104EC0002C352C330D0A0041542B43574D4F44458C
:104ED0003D330D0A0041540D0A0041542B43495003
:104EE00053454E443D302C25640D0A002C002533DB
:104EF0002E37662C25322E37662C256400000000E4
:104F0000204F00080000002018000000FC440008AA
:104F1000384F000818000020C00B00000C450008A6
:104F200000000000000000000024F4000100000068
:084F3000100000000000000069
:04000005080000ED02
:00000001FF
